{
  "contractName": "MedicalHistory",
  "abi": [
    {
      "constant": true,
      "inputs": [],
      "name": "getMedicalDataHistoryLength",
      "outputs": [
        {
          "name": "",
          "type": "uint256"
        }
      ],
      "payable": false,
      "stateMutability": "view",
      "type": "function",
      "signature": "0xe7e2e46e"
    },
    {
      "constant": true,
      "inputs": [],
      "name": "getApprovalQueueLength",
      "outputs": [
        {
          "name": "",
          "type": "uint256"
        }
      ],
      "payable": false,
      "stateMutability": "view",
      "type": "function",
      "signature": "0xc68f31ee"
    },
    {
      "constant": true,
      "inputs": [],
      "name": "getPermissionsQueueLength",
      "outputs": [
        {
          "name": "",
          "type": "uint256"
        }
      ],
      "payable": false,
      "stateMutability": "view",
      "type": "function",
      "signature": "0x58673ca9"
    },
    {
      "constant": true,
      "inputs": [],
      "name": "getAllowedPermissionsQueueLength",
      "outputs": [
        {
          "name": "",
          "type": "uint256"
        }
      ],
      "payable": false,
      "stateMutability": "view",
      "type": "function",
      "signature": "0x7ed6d290"
    },
    {
      "constant": true,
      "inputs": [],
      "name": "getMyData",
      "outputs": [
        {
          "components": [
            {
              "name": "provider_address",
              "type": "address"
            },
            {
              "name": "date",
              "type": "string"
            },
            {
              "name": "medicine_name",
              "type": "string[]"
            },
            {
              "name": "quantity",
              "type": "uint256[]"
            },
            {
              "name": "index",
              "type": "uint256"
            }
          ],
          "name": "",
          "type": "tuple[]"
        }
      ],
      "payable": false,
      "stateMutability": "view",
      "type": "function",
      "signature": "0xd9c8a38b"
    },
    {
      "constant": true,
      "inputs": [
        {
          "name": "patient_address",
          "type": "address"
        }
      ],
      "name": "getOtherPatientData",
      "outputs": [
        {
          "components": [
            {
              "name": "provider_address",
              "type": "address"
            },
            {
              "name": "date",
              "type": "string"
            },
            {
              "name": "medicine_name",
              "type": "string[]"
            },
            {
              "name": "quantity",
              "type": "uint256[]"
            },
            {
              "name": "index",
              "type": "uint256"
            }
          ],
          "name": "",
          "type": "tuple[]"
        }
      ],
      "payable": false,
      "stateMutability": "view",
      "type": "function",
      "signature": "0x4bb36ae1"
    },
    {
      "constant": false,
      "inputs": [
        {
          "name": "patient_address",
          "type": "address"
        },
        {
          "name": "d",
          "type": "string"
        },
        {
          "name": "s",
          "type": "string[]"
        },
        {
          "name": "u",
          "type": "uint256[]"
        }
      ],
      "name": "setData",
      "outputs": [],
      "payable": false,
      "stateMutability": "nonpayable",
      "type": "function",
      "signature": "0x5a22ca3a"
    },
    {
      "constant": true,
      "inputs": [],
      "name": "getApprovalQueueData",
      "outputs": [
        {
          "components": [
            {
              "name": "provider_address",
              "type": "address"
            },
            {
              "name": "date",
              "type": "string"
            },
            {
              "name": "medicine_name",
              "type": "string[]"
            },
            {
              "name": "quantity",
              "type": "uint256[]"
            },
            {
              "name": "index",
              "type": "uint256"
            }
          ],
          "name": "",
          "type": "tuple[]"
        }
      ],
      "payable": false,
      "stateMutability": "view",
      "type": "function",
      "signature": "0xd6e26eed"
    },
    {
      "constant": false,
      "inputs": [
        {
          "name": "index",
          "type": "uint256"
        }
      ],
      "name": "approveData",
      "outputs": [],
      "payable": false,
      "stateMutability": "nonpayable",
      "type": "function",
      "signature": "0x5fdebc2e"
    },
    {
      "constant": false,
      "inputs": [
        {
          "name": "index",
          "type": "uint256"
        }
      ],
      "name": "denyData",
      "outputs": [],
      "payable": false,
      "stateMutability": "nonpayable",
      "type": "function",
      "signature": "0x6938f8da"
    },
    {
      "constant": true,
      "inputs": [],
      "name": "getPermissionsQueueData",
      "outputs": [
        {
          "components": [
            {
              "name": "provider_address",
              "type": "address"
            },
            {
              "name": "date",
              "type": "string"
            },
            {
              "name": "message",
              "type": "string"
            },
            {
              "name": "index",
              "type": "uint256"
            }
          ],
          "name": "",
          "type": "tuple[]"
        }
      ],
      "payable": false,
      "stateMutability": "view",
      "type": "function",
      "signature": "0x28381df5"
    },
    {
      "constant": true,
      "inputs": [],
      "name": "getAllowedPermissionsQueueData",
      "outputs": [
        {
          "components": [
            {
              "name": "provider_address",
              "type": "address"
            },
            {
              "name": "date",
              "type": "string"
            },
            {
              "name": "time",
              "type": "uint256"
            },
            {
              "name": "index",
              "type": "uint256"
            }
          ],
          "name": "",
          "type": "tuple[]"
        }
      ],
      "payable": false,
      "stateMutability": "view",
      "type": "function",
      "signature": "0xa350ee32"
    },
    {
      "constant": false,
      "inputs": [
        {
          "name": "patient_address",
          "type": "address"
        },
        {
          "name": "date",
          "type": "string"
        },
        {
          "name": "message",
          "type": "string"
        }
      ],
      "name": "askPermission",
      "outputs": [],
      "payable": false,
      "stateMutability": "nonpayable",
      "type": "function",
      "signature": "0x68102c92"
    },
    {
      "constant": false,
      "inputs": [
        {
          "name": "index",
          "type": "uint256"
        },
        {
          "name": "time",
          "type": "uint256"
        },
        {
          "name": "date",
          "type": "string"
        }
      ],
      "name": "grantPermission",
      "outputs": [],
      "payable": false,
      "stateMutability": "nonpayable",
      "type": "function",
      "signature": "0x1594a3fa"
    },
    {
      "constant": false,
      "inputs": [
        {
          "name": "index",
          "type": "uint256"
        }
      ],
      "name": "denyPermission",
      "outputs": [],
      "payable": false,
      "stateMutability": "nonpayable",
      "type": "function",
      "signature": "0xb9b86faf"
    }
  ],
  "bytecode": "0x608060405234801561001057600080fd5b5061340f806100206000396000f3fe608060405234801561001057600080fd5b5060043610610112576000357c0100000000000000000000000000000000000000000000000000000000900480636938f8da116100b4578063c68f31ee11610083578063c68f31ee14610267578063d6e26eed14610285578063d9c8a38b146102a3578063e7e2e46e146102c157610112565b80636938f8da146101f35780637ed6d2901461020f578063a350ee321461022d578063b9b86faf1461024b57610112565b806358673ca9116100f057806358673ca9146101815780635a22ca3a1461019f5780635fdebc2e146101bb57806368102c92146101d757610112565b80631594a3fa1461011757806328381df5146101335780634bb36ae114610151575b600080fd5b610131600480360361012c9190810190612be6565b6102df565b005b61013b61087e565b60405161014891906130ce565b60405180910390f35b61016b60048036036101669190810190612a6a565b610abf565b60405161017891906130ac565b60405180910390f35b610189610f39565b60405161019691906130f0565b60405180910390f35b6101b960048036036101b49190810190612a93565b61101f565b005b6101d560048036036101d09190810190612bbd565b6111c8565b005b6101f160048036036101ec9190810190612b3e565b611721565b005b61020d60048036036102089190810190612bbd565b6118a7565b005b610217611a37565b60405161022491906130f0565b60405180910390f35b610235611b1d565b604051610242919061308a565b60405180910390f35b61026560048036036102609190810190612bbd565b611cc6565b005b61026f611e46565b60405161027c91906130f0565b60405180910390f35b61028d611f2c565b60405161029a91906130ac565b60405180910390f35b6102ab61220c565b6040516102b891906130ac565b60405180910390f35b6102c96124eb565b6040516102d691906130f0565b60405180910390f35b6000600260003373ffffffffffffffffffffffffffffffffffffffff1673ffffffffffffffffffffffffffffffffffffffff16815260200190815260200160002080549050905060008090505b818110156103ae5784600260003373ffffffffffffffffffffffffffffffffffffffff1673ffffffffffffffffffffffffffffffffffffffff1681526020019081526020016000208281548110151561038157fe5b90600052602060002090600402016003015414156103a1578094506103ae565b808060010191505061032c565b506000600260003373ffffffffffffffffffffffffffffffffffffffff1673ffffffffffffffffffffffffffffffffffffffff168152602001908152602001600020858154811015156103fd57fe5b906000526020600020906004020160000160009054906101000a900473ffffffffffffffffffffffffffffffffffffffff1690506000600360003373ffffffffffffffffffffffffffffffffffffffff1673ffffffffffffffffffffffffffffffffffffffff16815260200190815260200160002080549050905060008090505b8181101561065d578273ffffffffffffffffffffffffffffffffffffffff16600360003373ffffffffffffffffffffffffffffffffffffffff1673ffffffffffffffffffffffffffffffffffffffff168152602001908152602001600020828154811015156104e957fe5b906000526020600020906004020160000160009054906101000a900473ffffffffffffffffffffffffffffffffffffffff1673ffffffffffffffffffffffffffffffffffffffff16141561065057854201600360003373ffffffffffffffffffffffffffffffffffffffff1673ffffffffffffffffffffffffffffffffffffffff1681526020019081526020016000208281548110151561058657fe5b906000526020600020906004020160020181905550600260003373ffffffffffffffffffffffffffffffffffffffff1673ffffffffffffffffffffffffffffffffffffffff168152602001908152602001600020878154811015156105e757fe5b9060005260206000209060040201600080820160006101000a81549073ffffffffffffffffffffffffffffffffffffffff021916905560018201600061062d91906125cf565b60028201600061063d91906125cf565b6003820160009055505050505050610879565b808060010191505061047e565b50610666612617565b6080604051908101604052808473ffffffffffffffffffffffffffffffffffffffff168152602001868152602001878152602001600360003373ffffffffffffffffffffffffffffffffffffffff1673ffffffffffffffffffffffffffffffffffffffff168152602001908152602001600020805490508152509050600360003373ffffffffffffffffffffffffffffffffffffffff1673ffffffffffffffffffffffffffffffffffffffff168152602001908152602001600020819080600181540180825580915050906001820390600052602060002090600402016000909192909190915060008201518160000160006101000a81548173ffffffffffffffffffffffffffffffffffffffff021916908373ffffffffffffffffffffffffffffffffffffffff16021790555060208201518160010190805190602001906107b0929190612656565b506040820151816002015560608201518160030155505050600260003373ffffffffffffffffffffffffffffffffffffffff1673ffffffffffffffffffffffffffffffffffffffff1681526020019081526020016000208781548110151561081457fe5b9060005260206000209060040201600080820160006101000a81549073ffffffffffffffffffffffffffffffffffffffff021916905560018201600061085a91906125cf565b60028201600061086a91906125cf565b60038201600090555050505050505b505050565b6060600260003373ffffffffffffffffffffffffffffffffffffffff1673ffffffffffffffffffffffffffffffffffffffff168152602001908152602001600020805480602002602001604051908101604052809291908181526020016000905b82821015610ab65783829060005260206000209060040201608060405190810160405290816000820160009054906101000a900473ffffffffffffffffffffffffffffffffffffffff1673ffffffffffffffffffffffffffffffffffffffff1673ffffffffffffffffffffffffffffffffffffffff168152602001600182018054600181600116156101000203166002900480601f0160208091040260200160405190810160405280929190818152602001828054600181600116156101000203166002900480156109f25780601f106109c7576101008083540402835291602001916109f2565b820191906000526020600020905b8154815290600101906020018083116109d557829003601f168201915b50505050508152602001600282018054600181600116156101000203166002900480601f016020809104026020016040519081016040528092919081815260200182805460018160011615610100020316600290048015610a945780601f10610a6957610100808354040283529160200191610a94565b820191906000526020600020905b815481529060010190602001808311610a7757829003601f168201915b50505050508152602001600382015481525050815260200190600101906108df565b50505050905090565b606060008090506000600360008573ffffffffffffffffffffffffffffffffffffffff1673ffffffffffffffffffffffffffffffffffffffff16815260200190815260200160002080549050905060008090505b81811015610c48573373ffffffffffffffffffffffffffffffffffffffff16600360008773ffffffffffffffffffffffffffffffffffffffff1673ffffffffffffffffffffffffffffffffffffffff16815260200190815260200160002082815481101515610b7e57fe5b906000526020600020906004020160000160009054906101000a900473ffffffffffffffffffffffffffffffffffffffff1673ffffffffffffffffffffffffffffffffffffffff161415610c3b5742600360008773ffffffffffffffffffffffffffffffffffffffff1673ffffffffffffffffffffffffffffffffffffffff16815260200190815260200160002082815481101515610c1957fe5b9060005260206000209060040201600201541115610c3657600192505b610c48565b8080600101915050610b13565b50600182141515610c5857600080fd5b6000808573ffffffffffffffffffffffffffffffffffffffff1673ffffffffffffffffffffffffffffffffffffffff168152602001908152602001600020805480602002602001604051908101604052809291908181526020016000905b82821015610f2c578382906000526020600020906005020160a060405190810160405290816000820160009054906101000a900473ffffffffffffffffffffffffffffffffffffffff1673ffffffffffffffffffffffffffffffffffffffff1673ffffffffffffffffffffffffffffffffffffffff168152602001600182018054600181600116156101000203166002900480601f016020809104026020016040519081016040528092919081815260200182805460018160011615610100020316600290048015610dc95780601f10610d9e57610100808354040283529160200191610dc9565b820191906000526020600020905b815481529060010190602001808311610dac57829003601f168201915b5050505050815260200160028201805480602002602001604051908101604052809291908181526020016000905b82821015610eb3578382906000526020600020018054600181600116156101000203166002900480601f016020809104026020016040519081016040528092919081815260200182805460018160011615610100020316600290048015610e9f5780601f10610e7457610100808354040283529160200191610e9f565b820191906000526020600020905b815481529060010190602001808311610e8257829003601f168201915b505050505081526020019060010190610df7565b50505050815260200160038201805480602002602001604051908101604052809291908181526020018280548015610f0a57602002820191906000526020600020905b815481526020019060010190808311610ef6575b5050505050815260200160048201548152505081526020019060010190610cb6565b5050505092505050919050565b600080600090506000600260003373ffffffffffffffffffffffffffffffffffffffff1673ffffffffffffffffffffffffffffffffffffffff16815260200190815260200160002080549050905060008090505b81811015611016576000600260003373ffffffffffffffffffffffffffffffffffffffff1673ffffffffffffffffffffffffffffffffffffffff16815260200190815260200160002082815481101515610fe357fe5b906000526020600020906004020160030154141561100057611009565b82806001019350505b8080600101915050610f8d565b50819250505090565b6110276126d6565b60a0604051908101604052803373ffffffffffffffffffffffffffffffffffffffff16815260200185815260200184815260200183815260200160018060008973ffffffffffffffffffffffffffffffffffffffff1673ffffffffffffffffffffffffffffffffffffffff16815260200190815260200160002080549050018152509050600160008673ffffffffffffffffffffffffffffffffffffffff1673ffffffffffffffffffffffffffffffffffffffff168152602001908152602001600020819080600181540180825580915050906001820390600052602060002090600502016000909192909190915060008201518160000160006101000a81548173ffffffffffffffffffffffffffffffffffffffff021916908373ffffffffffffffffffffffffffffffffffffffff1602179055506020820151816001019080519060200190611179929190612656565b50604082015181600201908051906020019061119692919061271c565b5060608201518160030190805190602001906111b392919061277c565b50608082015181600401555050505050505050565b6000600160003373ffffffffffffffffffffffffffffffffffffffff1673ffffffffffffffffffffffffffffffffffffffff16815260200190815260200160002080549050905060008090505b818110156112975782600160003373ffffffffffffffffffffffffffffffffffffffff1673ffffffffffffffffffffffffffffffffffffffff1681526020019081526020016000208281548110151561126a57fe5b906000526020600020906005020160040154141561128a57809250611297565b8080600101915050611215565b506112a06126d6565b600160003373ffffffffffffffffffffffffffffffffffffffff1673ffffffffffffffffffffffffffffffffffffffff168152602001908152602001600020838154811015156112ec57fe5b906000526020600020906005020160a060405190810160405290816000820160009054906101000a900473ffffffffffffffffffffffffffffffffffffffff1673ffffffffffffffffffffffffffffffffffffffff1673ffffffffffffffffffffffffffffffffffffffff168152602001600182018054600181600116156101000203166002900480601f0160208091040260200160405190810160405280929190818152602001828054600181600116156101000203166002900480156113f55780601f106113ca576101008083540402835291602001916113f5565b820191906000526020600020905b8154815290600101906020018083116113d857829003601f168201915b5050505050815260200160028201805480602002602001604051908101604052809291908181526020016000905b828210156114df578382906000526020600020018054600181600116156101000203166002900480601f0160208091040260200160405190810160405280929190818152602001828054600181600116156101000203166002900480156114cb5780601f106114a0576101008083540402835291602001916114cb565b820191906000526020600020905b8154815290600101906020018083116114ae57829003601f168201915b505050505081526020019060010190611423565b5050505081526020016003820180548060200260200160405190810160405280929190818152602001828054801561153657602002820191906000526020600020905b815481526020019060010190808311611522575b5050505050815260200160048201548152505090506000803373ffffffffffffffffffffffffffffffffffffffff1673ffffffffffffffffffffffffffffffffffffffff168152602001908152602001600020819080600181540180825580915050906001820390600052602060002090600502016000909192909190915060008201518160000160006101000a81548173ffffffffffffffffffffffffffffffffffffffff021916908373ffffffffffffffffffffffffffffffffffffffff1602179055506020820151816001019080519060200190611618929190612656565b50604082015181600201908051906020019061163592919061271c565b50606082015181600301908051906020019061165292919061277c565b5060808201518160040155505050600160003373ffffffffffffffffffffffffffffffffffffffff1673ffffffffffffffffffffffffffffffffffffffff168152602001908152602001600020838154811015156116ac57fe5b9060005260206000209060050201600080820160006101000a81549073ffffffffffffffffffffffffffffffffffffffff02191690556001820160006116f291906125cf565b60028201600061170291906127c9565b60038201600061171291906127ea565b60048201600090555050505050565b61172961280b565b6080604051908101604052803373ffffffffffffffffffffffffffffffffffffffff1681526020018481526020018381526020016001600260008873ffffffffffffffffffffffffffffffffffffffff1673ffffffffffffffffffffffffffffffffffffffff16815260200190815260200160002080549050018152509050600260008573ffffffffffffffffffffffffffffffffffffffff1673ffffffffffffffffffffffffffffffffffffffff168152602001908152602001600020819080600181540180825580915050906001820390600052602060002090600402016000909192909190915060008201518160000160006101000a81548173ffffffffffffffffffffffffffffffffffffffff021916908373ffffffffffffffffffffffffffffffffffffffff1602179055506020820151816001019080519060200190611876929190612656565b506040820151816002019080519060200190611893929190612656565b506060820151816003015550505050505050565b6000600160003373ffffffffffffffffffffffffffffffffffffffff1673ffffffffffffffffffffffffffffffffffffffff16815260200190815260200160002080549050905060008090505b818110156119765782600160003373ffffffffffffffffffffffffffffffffffffffff1673ffffffffffffffffffffffffffffffffffffffff1681526020019081526020016000208281548110151561194957fe5b906000526020600020906005020160040154141561196957809250611976565b80806001019150506118f4565b50600160003373ffffffffffffffffffffffffffffffffffffffff1673ffffffffffffffffffffffffffffffffffffffff168152602001908152602001600020828154811015156119c357fe5b9060005260206000209060050201600080820160006101000a81549073ffffffffffffffffffffffffffffffffffffffff0219169055600182016000611a0991906125cf565b600282016000611a1991906127c9565b600382016000611a2991906127ea565b600482016000905550505050565b600080600090506000600360003373ffffffffffffffffffffffffffffffffffffffff1673ffffffffffffffffffffffffffffffffffffffff16815260200190815260200160002080549050905060008090505b81811015611b14576000600360003373ffffffffffffffffffffffffffffffffffffffff1673ffffffffffffffffffffffffffffffffffffffff16815260200190815260200160002082815481101515611ae157fe5b9060005260206000209060040201600301541415611afe57611b07565b82806001019350505b8080600101915050611a8b565b50819250505090565b6060600360003373ffffffffffffffffffffffffffffffffffffffff1673ffffffffffffffffffffffffffffffffffffffff168152602001908152602001600020805480602002602001604051908101604052809291908181526020016000905b82821015611cbd5783829060005260206000209060040201608060405190810160405290816000820160009054906101000a900473ffffffffffffffffffffffffffffffffffffffff1673ffffffffffffffffffffffffffffffffffffffff1673ffffffffffffffffffffffffffffffffffffffff168152602001600182018054600181600116156101000203166002900480601f016020809104026020016040519081016040528092919081815260200182805460018160011615610100020316600290048015611c915780601f10611c6657610100808354040283529160200191611c91565b820191906000526020600020905b815481529060010190602001808311611c7457829003601f168201915b505050505081526020016002820154815260200160038201548152505081526020019060010190611b7e565b50505050905090565b6000600260003373ffffffffffffffffffffffffffffffffffffffff1673ffffffffffffffffffffffffffffffffffffffff16815260200190815260200160002080549050905060008090505b81811015611d955782600260003373ffffffffffffffffffffffffffffffffffffffff1673ffffffffffffffffffffffffffffffffffffffff16815260200190815260200160002082815481101515611d6857fe5b9060005260206000209060040201600301541415611d8857809250611d95565b8080600101915050611d13565b50600260003373ffffffffffffffffffffffffffffffffffffffff1673ffffffffffffffffffffffffffffffffffffffff16815260200190815260200160002082815481101515611de257fe5b9060005260206000209060040201600080820160006101000a81549073ffffffffffffffffffffffffffffffffffffffff0219169055600182016000611e2891906125cf565b600282016000611e3891906125cf565b600382016000905550505050565b600080600090506000600160003373ffffffffffffffffffffffffffffffffffffffff1673ffffffffffffffffffffffffffffffffffffffff16815260200190815260200160002080549050905060008090505b81811015611f23576000600160003373ffffffffffffffffffffffffffffffffffffffff1673ffffffffffffffffffffffffffffffffffffffff16815260200190815260200160002082815481101515611ef057fe5b9060005260206000209060050201600401541415611f0d57611f16565b82806001019350505b8080600101915050611e9a565b50819250505090565b6060600160003373ffffffffffffffffffffffffffffffffffffffff1673ffffffffffffffffffffffffffffffffffffffff168152602001908152602001600020805480602002602001604051908101604052809291908181526020016000905b82821015612203578382906000526020600020906005020160a060405190810160405290816000820160009054906101000a900473ffffffffffffffffffffffffffffffffffffffff1673ffffffffffffffffffffffffffffffffffffffff1673ffffffffffffffffffffffffffffffffffffffff168152602001600182018054600181600116156101000203166002900480601f0160208091040260200160405190810160405280929190818152602001828054600181600116156101000203166002900480156120a05780601f10612075576101008083540402835291602001916120a0565b820191906000526020600020905b81548152906001019060200180831161208357829003601f168201915b5050505050815260200160028201805480602002602001604051908101604052809291908181526020016000905b8282101561218a578382906000526020600020018054600181600116156101000203166002900480601f0160208091040260200160405190810160405280929190818152602001828054600181600116156101000203166002900480156121765780601f1061214b57610100808354040283529160200191612176565b820191906000526020600020905b81548152906001019060200180831161215957829003601f168201915b5050505050815260200190600101906120ce565b505050508152602001600382018054806020026020016040519081016040528092919081815260200182805480156121e157602002820191906000526020600020905b8154815260200190600101908083116121cd575b5050505050815260200160048201548152505081526020019060010190611f8d565b50505050905090565b60606000803373ffffffffffffffffffffffffffffffffffffffff1673ffffffffffffffffffffffffffffffffffffffff168152602001908152602001600020805480602002602001604051908101604052809291908181526020016000905b828210156124e2578382906000526020600020906005020160a060405190810160405290816000820160009054906101000a900473ffffffffffffffffffffffffffffffffffffffff1673ffffffffffffffffffffffffffffffffffffffff1673ffffffffffffffffffffffffffffffffffffffff168152602001600182018054600181600116156101000203166002900480601f01602080910402602001604051908101604052809291908181526020018280546001816001161561010002031660029004801561237f5780601f106123545761010080835404028352916020019161237f565b820191906000526020600020905b81548152906001019060200180831161236257829003601f168201915b5050505050815260200160028201805480602002602001604051908101604052809291908181526020016000905b82821015612469578382906000526020600020018054600181600116156101000203166002900480601f0160208091040260200160405190810160405280929190818152602001828054600181600116156101000203166002900480156124555780601f1061242a57610100808354040283529160200191612455565b820191906000526020600020905b81548152906001019060200180831161243857829003601f168201915b5050505050815260200190600101906123ad565b505050508152602001600382018054806020026020016040519081016040528092919081815260200182805480156124c057602002820191906000526020600020905b8154815260200190600101908083116124ac575b505050505081526020016004820154815250508152602001906001019061226c565b50505050905090565b6000806000905060008060003373ffffffffffffffffffffffffffffffffffffffff1673ffffffffffffffffffffffffffffffffffffffff16815260200190815260200160002080549050905060008090505b818110156125c65760008060003373ffffffffffffffffffffffffffffffffffffffff1673ffffffffffffffffffffffffffffffffffffffff1681526020019081526020016000208281548110151561259357fe5b90600052602060002090600502016004015414156125b0576125b9565b82806001019350505b808060010191505061253e565b50819250505090565b50805460018160011615610100020316600290046000825580601f106125f55750612614565b601f016020900490600052602060002090810190612613919061284a565b5b50565b608060405190810160405280600073ffffffffffffffffffffffffffffffffffffffff1681526020016060815260200160008152602001600081525090565b828054600181600116156101000203166002900490600052602060002090601f016020900481019282601f1061269757805160ff19168380011785556126c5565b828001600101855582156126c5579182015b828111156126c45782518255916020019190600101906126a9565b5b5090506126d2919061284a565b5090565b60a060405190810160405280600073ffffffffffffffffffffffffffffffffffffffff168152602001606081526020016060815260200160608152602001600081525090565b82805482825590600052602060002090810192821561276b579160200282015b8281111561276a57825182908051906020019061275a929190612656565b509160200191906001019061273c565b5b509050612778919061286f565b5090565b8280548282559060005260206000209081019282156127b8579160200282015b828111156127b757825182559160200191906001019061279c565b5b5090506127c5919061284a565b5090565b50805460008255906000526020600020908101906127e7919061286f565b50565b5080546000825590600052602060002090810190612808919061284a565b50565b608060405190810160405280600073ffffffffffffffffffffffffffffffffffffffff1681526020016060815260200160608152602001600081525090565b61286c91905b80821115612868576000816000905550600101612850565b5090565b90565b61289891905b80821115612894576000818161288b91906125cf565b50600101612875565b5090565b90565b60006128a78235613346565b905092915050565b600082601f83011215156128c257600080fd5b81356128d56128d082613138565b61310b565b9150818183526020840193506020810190508360005b8381101561291b578135860161290188826129aa565b8452602084019350602083019250506001810190506128eb565b5050505092915050565b600082601f830112151561293857600080fd5b813561294b61294682613160565b61310b565b9150818183526020840193506020810190508385602084028201111561297057600080fd5b60005b838110156129a057816129868882612a56565b845260208401935060208301925050600181019050612973565b5050505092915050565b600082601f83011215156129bd57600080fd5b81356129d06129cb82613188565b61310b565b915080825260208301602083018583830111156129ec57600080fd5b6129f7838284613382565b50505092915050565b600082601f8301121515612a1357600080fd5b8135612a26612a21826131b4565b61310b565b91508082526020830160208301858383011115612a4257600080fd5b612a4d838284613382565b50505092915050565b6000612a628235613378565b905092915050565b600060208284031215612a7c57600080fd5b6000612a8a8482850161289b565b91505092915050565b60008060008060808587031215612aa957600080fd5b6000612ab78782880161289b565b945050602085013567ffffffffffffffff811115612ad457600080fd5b612ae087828801612a00565b935050604085013567ffffffffffffffff811115612afd57600080fd5b612b09878288016128af565b925050606085013567ffffffffffffffff811115612b2657600080fd5b612b3287828801612925565b91505092959194509250565b600080600060608486031215612b5357600080fd5b6000612b618682870161289b565b935050602084013567ffffffffffffffff811115612b7e57600080fd5b612b8a86828701612a00565b925050604084013567ffffffffffffffff811115612ba757600080fd5b612bb386828701612a00565b9150509250925092565b600060208284031215612bcf57600080fd5b6000612bdd84828501612a56565b91505092915050565b600080600060608486031215612bfb57600080fd5b6000612c0986828701612a56565b9350506020612c1a86828701612a56565b925050604084013567ffffffffffffffff811115612c3757600080fd5b612c4386828701612a00565b9150509250925092565b6000612c598383612ee2565b905092915050565b6000612c6d8383612f1b565b905092915050565b6000612c818383612f7e565b905092915050565b6000612c958383613002565b905092915050565b6000612ca9838361306c565b60208301905092915050565b612cbe8161330a565b82525050565b6000612ccf82613221565b612cd981856132a4565b935083602082028501612ceb856131e0565b60005b84811015612d24578383038852612d06838351612c4d565b9250612d1182613263565b9150602088019750600181019050612cee565b508196508694505050505092915050565b6000612d408261322c565b612d4a81856132b5565b935083602082028501612d5c856131ed565b60005b84811015612d95578383038852612d77838351612c61565b9250612d8282613270565b9150602088019750600181019050612d5f565b508196508694505050505092915050565b6000612db182613237565b612dbb81856132c6565b935083602082028501612dcd856131fa565b60005b84811015612e06578383038852612de8838351612c75565b9250612df38261327d565b9150602088019750600181019050612dd0565b508196508694505050505092915050565b6000612e2282613242565b612e2c81856132d7565b935083602082028501612e3e85613207565b60005b84811015612e77578383038852612e59838351612c89565b9250612e648261328a565b9150602088019750600181019050612e41565b508196508694505050505092915050565b6000612e938261324d565b612e9d81856132e8565b9350612ea883613214565b60005b82811015612ed657612ebe868351612c9d565b9550612ec982613297565b9150600181019050612eab565b50849250505092915050565b6000612eed82613258565b612ef781856132f9565b9350612f07818560208601613391565b612f10816133c4565b840191505092915050565b6000608083016000830151612f336000860182612cb5565b5060208301518482036020860152612f4b8282612ee2565b9150506040830151612f60604086018261306c565b506060830151612f73606086018261306c565b508091505092915050565b600060a083016000830151612f966000860182612cb5565b5060208301518482036020860152612fae8282612ee2565b91505060408301518482036040860152612fc88282612cc4565b91505060608301518482036060860152612fe28282612e88565b9150506080830151612ff7608086018261306c565b508091505092915050565b600060808301600083015161301a6000860182612cb5565b50602083015184820360208601526130328282612ee2565b9150506040830151848203604086015261304c8282612ee2565b9150506060830151613061606086018261306c565b508091505092915050565b6130758161333c565b82525050565b6130848161333c565b82525050565b600060208201905081810360008301526130a48184612d35565b905092915050565b600060208201905081810360008301526130c68184612da6565b905092915050565b600060208201905081810360008301526130e88184612e17565b905092915050565b6000602082019050613105600083018461307b565b92915050565b6000604051905081810181811067ffffffffffffffff8211171561312e57600080fd5b8060405250919050565b600067ffffffffffffffff82111561314f57600080fd5b602082029050602081019050919050565b600067ffffffffffffffff82111561317757600080fd5b602082029050602081019050919050565b600067ffffffffffffffff82111561319f57600080fd5b601f19601f8301169050602081019050919050565b600067ffffffffffffffff8211156131cb57600080fd5b601f19601f8301169050602081019050919050565b6000602082019050919050565b6000602082019050919050565b6000602082019050919050565b6000602082019050919050565b6000602082019050919050565b600081519050919050565b600081519050919050565b600081519050919050565b600081519050919050565b600081519050919050565b600081519050919050565b6000602082019050919050565b6000602082019050919050565b6000602082019050919050565b6000602082019050919050565b6000602082019050919050565b600082825260208201905092915050565b600082825260208201905092915050565b600082825260208201905092915050565b600082825260208201905092915050565b600082825260208201905092915050565b600082825260208201905092915050565b60006133158261331c565b9050919050565b600073ffffffffffffffffffffffffffffffffffffffff82169050919050565b6000819050919050565b600061335182613358565b9050919050565b600073ffffffffffffffffffffffffffffffffffffffff82169050919050565b6000819050919050565b82818337600083830152505050565b60005b838110156133af578082015181840152602081019050613394565b838111156133be576000848401525b50505050565b6000601f19601f830116905091905056fea265627a7a723058208bfde02e8713850751ddad59ec06334cdfbcb5b9881289e630dab2d70244a5326c6578706572696d656e74616cf50037",
  "source": "pragma solidity ^0.5.4;\r\npragma experimental ABIEncoderV2;\r\n\r\ncontract MedicalHistory {\r\n    struct medicalData {\r\n        address provider_address;\r\n        string date;\r\n        string[] medicine_name;\r\n        uint[] quantity;\r\n        uint index;\r\n    }\r\n    \r\n    struct permissionData {\r\n        address provider_address;\r\n        string date;\r\n        string message;\r\n        uint index;\r\n    }\r\n    \r\n    struct allowedPermissions {\r\n        address provider_address;\r\n        string date;\r\n        uint time;\r\n        uint index;\r\n    }\r\n\r\n    mapping (address=>medicalData[]) medicalDataHistory;\r\n\r\n    mapping(address => medicalData[]) approvalQueue;\r\n    \r\n    mapping(address => permissionData[]) permissionsQueue;\r\n    \r\n    mapping(address => allowedPermissions[]) allowedPermissionsQueue;\r\n\r\n    function getMedicalDataHistoryLength() public view returns(uint) {\r\n        uint length = 0;\r\n        uint dataLength = medicalDataHistory[msg.sender].length;\r\n        for(uint i=0; i<dataLength; i++) {\r\n            if(medicalDataHistory[msg.sender][i].index == 0) {\r\n                continue;\r\n            }\r\n            length++;\r\n        }\r\n        return length;\r\n    }\r\n    \r\n    function getApprovalQueueLength() public view returns(uint) {\r\n        uint length = 0;\r\n        uint dataLength = approvalQueue[msg.sender].length;\r\n        for(uint i=0; i<dataLength; i++) {\r\n            if(approvalQueue[msg.sender][i].index == 0) {\r\n                continue;\r\n            }\r\n            length++;\r\n        }\r\n        return length;\r\n    }\r\n    \r\n    function getPermissionsQueueLength() public view returns(uint) {\r\n        uint length = 0;\r\n        uint dataLength = permissionsQueue[msg.sender].length;\r\n        for(uint i=0; i<dataLength; i++) {\r\n            if(permissionsQueue[msg.sender][i].index == 0) {\r\n                continue;\r\n            }\r\n            length++;\r\n        }\r\n        return length;\r\n    }\r\n    \r\n    function getAllowedPermissionsQueueLength() public view returns(uint) {\r\n        uint length = 0;\r\n        uint dataLength = allowedPermissionsQueue[msg.sender].length;\r\n        for(uint i=0; i<dataLength; i++) {\r\n            if(allowedPermissionsQueue[msg.sender][i].index == 0) {\r\n                continue;\r\n            }\r\n            length++;\r\n        }\r\n        return length;\r\n    }\r\n\r\n    function getMyData() public view returns(medicalData[] memory) {\r\n        return medicalDataHistory[msg.sender];\r\n    }\r\n\r\n    function getOtherPatientData(address patient_address) public view returns(medicalData[] memory) {\r\n        uint flag = 0;\r\n        uint length = allowedPermissionsQueue[patient_address].length;\r\n        for(uint i=0; i<length; i++) {\r\n            if(allowedPermissionsQueue[patient_address][i].provider_address == msg.sender) {\r\n                if(allowedPermissionsQueue[patient_address][i].time > now) {\r\n                    flag = 1;\r\n                }\r\n                break;\r\n            }\r\n        }\r\n        require(flag==1);\r\n        return medicalDataHistory[patient_address];\r\n    }\r\n\r\n    function setData(address patient_address,string memory d, string[] memory s, uint[] memory u) public {\r\n        medicalData memory m = medicalData(msg.sender, d, s, u, approvalQueue[patient_address].length + 1);\r\n        approvalQueue[patient_address].push(m);\r\n    }\r\n    \r\n    function getApprovalQueueData() public view returns(medicalData[] memory) {\r\n        return approvalQueue[msg.sender];\r\n    }\r\n    \r\n    function approveData(uint index) public {\r\n        uint dataLength = approvalQueue[msg.sender].length;\r\n        for(uint i=0; i<dataLength; i++) {\r\n            if(approvalQueue[msg.sender][i].index == index) {\r\n                index = i;\r\n                break;\r\n            }\r\n        }\r\n        medicalData memory m = approvalQueue[msg.sender][index];\r\n        medicalDataHistory[msg.sender].push(m);\r\n        delete approvalQueue[msg.sender][index];\r\n    }\r\n\r\n    function denyData(uint index) public {\r\n        uint dataLength = approvalQueue[msg.sender].length;\r\n        for(uint i=0; i<dataLength; i++) {\r\n            if(approvalQueue[msg.sender][i].index == index) {\r\n                index = i;\r\n                break;\r\n            }\r\n        }\r\n        delete approvalQueue[msg.sender][index];\r\n    }\r\n    \r\n    function getPermissionsQueueData() public view returns(permissionData[] memory) {\r\n        return permissionsQueue[msg.sender];\r\n    }\r\n    \r\n    function getAllowedPermissionsQueueData() public view returns(allowedPermissions[] memory) {\r\n        return allowedPermissionsQueue[msg.sender];\r\n    }\r\n    \r\n    function askPermission(address patient_address, string memory date, string memory message) public {\r\n        permissionData memory p = permissionData(msg.sender, date, message, permissionsQueue[patient_address].length + 1);\r\n        permissionsQueue[patient_address].push(p);\r\n    }\r\n    \r\n    function grantPermission(uint index, uint time, string memory date) public {\r\n        uint pLength = permissionsQueue[msg.sender].length;\r\n        for(uint i=0; i<pLength; i++) {\r\n            if(permissionsQueue[msg.sender][i].index == index) {\r\n                index = i;\r\n                break;\r\n            }\r\n        }\r\n        address provider_address = permissionsQueue[msg.sender][index].provider_address;\r\n        uint apLength = allowedPermissionsQueue[msg.sender].length;\r\n        for(uint i=0; i<apLength; i++) {\r\n            if(allowedPermissionsQueue[msg.sender][i].provider_address == provider_address) {\r\n                allowedPermissionsQueue[msg.sender][i].time = now + time;\r\n                delete permissionsQueue[msg.sender][index];\r\n                return;\r\n             }\r\n        }\r\n        allowedPermissions memory ap = allowedPermissions(provider_address, date, time, allowedPermissionsQueue[msg.sender].length);\r\n        allowedPermissionsQueue[msg.sender].push(ap);\r\n        delete permissionsQueue[msg.sender][index];\r\n    }\r\n\r\n    function denyPermission(uint index) public {\r\n    uint dataLength = permissionsQueue[msg.sender].length;\r\n        for(uint i=0; i<dataLength; i++) {\r\n            if(permissionsQueue[msg.sender][i].index == index) {\r\n                index = i;\r\n                break;\r\n            }\r\n        }\r\n        delete permissionsQueue[msg.sender][index];\r\n    }\r\n}",
  "sourcePath": "C:/Users/Harshit/Desktop/healthcare/contracts/MedicalHistoryContract.sol",
  "compiler": {
    "name": "solc",
    "version": "0.5.4+commit.9549d8ff.Emscripten.clang"
  },
  "schemaVersion": "3.0.2",
  "updatedAt": "2019-05-09T03:42:49.976Z",
  "devdoc": {
    "methods": {}
  },
  "userdoc": {
    "methods": {}
  }
}